:020000040800F2
:100000006806002029020008E9030008E10300084F
:10001000E5030008DB0200080106000800000000FC
:100020000000000000000000000000003104000893
:10003000DF02000800000000EB0300087D05000857
:10004000430200084302000843020008430200087C
:10005000430200084302000843020008430200086C
:10006000430200084302000843020008430200085C
:10007000430200084302000843020008430200084C
:10008000430200084302000843020008430200083C
:10009000430200084302000843020008430200082C
:1000A000430200084302000843020008430200081C
:1000B000430200084302000843020008430200080C
:1000C00043020008430200084302000843020008FC
:1000D00043020008430200084302000843020008EC
:1000E00043020008430200084302000843020008DC
:1000F0004302000843020008000000000000000066
:100100000000000000000000430200084302000855
:100110000000000000000000430200084302000845
:10012000430200084302000843020008430200089B
:10013000430200084302000843020008430200088B
:100140004302000800000000000000000000000062
:10015000000000000000000000000000000000009F
:1001600000000000000000004302000843020008F5
:1001700043020008000000004302000800000000E5
:10018000000000004302000800F002F800F03CF814
:100190000AA090E8000C82448344AAF10107DA45E2
:1001A00001D100F031F8AFF2090EBAE80F0013F0F8
:1001B000010F18BFFB1A43F0010318476004000049
:1001C00080040000103A24BF78C878C1FAD85207DA
:1001D00024BF30C830C144BF04680C6070470000C1
:1001E0000023002400250026103A28BF78C1FBD840
:1001F000520728BF30C148BF0B6070471FB500F0E1
:1002000007FA1FBD10B510BD00F031F81146FFF719
:10021000F5FF00F0F7F900F04FF803B4FFF7F2FF35
:1002200003BC00F053F80000094880470948004724
:10023000FEE7FEE7FEE7FEE7FEE7FEE7FEE7FEE796
:10024000FEE7FEE704480549054A064B70470000F3
:100250008105000889010008680000206806002068
:10026000680200206802002070477047704775469A
:1002700000F028F8AE4605006946534620F0070016
:10028000854618B020B5FFF7DDFFBDE820404FF0F0
:1002900000064FF000074FF000084FF0000B21F070
:1002A0000701AC46ACE8C009ACE8C009ACE8C0093D
:1002B000ACE8C0098D4670470446AFF30080204685
:1002C000FFF7ABFF004870470400002001491820E9
:1002D000ABBEFEE726000200704700BFFEE7704796
:1002E000F0B50A4600210023002400BF3DE00125AF
:1002F00005FA01F3156805EA03049C4234D1157927
:10030000012D02D01579022D16D185684F000326E4
:10031000BE40B543856055794E00B540866835438B
:100320008560868801258D40AE43868086889579D4
:100330008D40ADB22E43868005684F000326BE4037
:10034000B543056015794E00B54006683543056034
:10035000C5684F000326BE40B543C560D5794E0041
:10036000B540C6683543C560491C1029BFD3F0BDF0
:1003700001857047816170471CB54FF400400090C3
:1003800001208DF8040002208DF8050000208DF872
:1003900006008DF8070069464FF09040FFF7A0FF78
:1003A0008020009069460D48FFF79AFF402000909A
:1003B00069460A48FFF794FF4FF400414FF0904020
:1003C000FFF7D6FF80210548FFF7D2FF4021034801
:1003D000FFF7CEFF002000F08FF81CBD001400488E
:1003E00000BFFEE700BFFEE77047704729B1064A2D
:1003F00052690243044B5A6104E0034A5269824342
:10040000014B5A61704700000010024010B50121F5
:100410004804FFF7EBFF01218804FFF7E7FF012104
:100420004805FFF7E3FF01218805FFF7DFFF10BD57
:10043000704700000CB50020019000902C48006827
:1004400040F480302A49086000BF2948006800F461
:10045000003000900198401C0190009818B9019854
:10046000B0F5A06FF1D12248006800F4003010B15F
:100470000120009001E0002000900098012836D172
:1004800012201C4908601A4840681949486008460B
:10049000406848600846406840F48060486008460C
:1004A000406820F47C1048600846406840F4E8103A
:1004B00048600846006840F08070086000BF0C4843
:1004C000006800F000700028F9D00948406820F06A
:1004D0000300074948600846406840F00200486051
:1004E00000BF0348406800F00C000828F9D10CBD9B
:1004F000001002400020024070B505461D480580EE
:10050000002423E005FA04F000F4004030B14FF479
:1005100000414FF09040FFF72DFF05E04FF4004100
:100520004FF09040FFF724FF00BF00BF00BF00BFA7
:1005300080211148FFF71EFF00BF00BF00BF00BFB2
:1005400080210D48FFF714FF601CC4B2102CD9DBCA
:1005500000BF00BF00BF00BF40210748FFF70AFFF0
:1005600000BF00BF00BF00BF40210348FFF700FFEE
:1005700070BD00000000002000140048704700001B
:1005800010B51B48006840F470001949086019480C
:10059000006840F00100174908600846406800F410
:1005A0007F00486008460068134908401149086008
:1005B0000846006820F4802008600846406820F45F
:1005C000FE0048600846C06A20F00F00C862084676
:1005D000006B0A4908400749086300208860FFF75C
:1005E00029FF4FF0006002498039086010BD00000B
:1005F00088ED00E000100240FFFFF6FE8C0FFF0FB9
:1006000000BFFEE7FFF702FFFFF7B6FE00BFFEE701
:100610004FF04070E1EE100A704700003C06000801
:100620000000002004000000C4010008400600088B
:100630000400002064060000E00100080000000043
:040000050800018965
:00000001FF
