:020000040800F2
:10000000600600200D020008CD030008C5030008AB
:10001000C9030008BF020008BD0500080000000079
:1000200000000000000000000000000015040008AF
:10003000C302000800000000CF03000839050008D3
:1000400027020008270200082702000827020008EC
:1000500027020008270200082702000827020008DC
:1000600027020008270200082702000827020008CC
:1000700027020008270200082702000827020008BC
:1000800027020008270200082702000827020008AC
:10009000270200082702000827020008270200089C
:1000A000270200082702000827020008270200088C
:1000B000270200082702000827020008270200087C
:1000C000270200082702000827020008270200086C
:1000D000270200082702000827020008270200085C
:1000E000270200082702000827020008270200084C
:1000F000270200082702000800000000000000009E
:10010000000000000000000027020008270200088D
:10011000000000000000000027020008270200087D
:10012000270200082702000827020008270200080B
:1001300027020008270200082702000827020008FB
:10014000270200080000000000000000000000007E
:10015000000000000000000000000000000000009F
:10016000000000000000000027020008270200082D
:10017000270200080000000027020008000000001D
:10018000000000002702000800F002F800F02EF83E
:100190000AA090E8000C82448344AAF10107DA45E2
:1001A00001D100F023F8AFF2090EBAE80F0013F006
:1001B000010F18BFFB1A43F0010318471C0400008D
:1001C0002C0400000023002400250026103A28BF3C
:1001D00078C1FBD8520728BF30C148BF0B607047B9
:1001E0001FB500F0F3F91FBD10B510BD00F031F8D8
:1001F0001146FFF7F5FF00F0E3F900F04FF803B404
:10020000FFF7F2FF03BC00F053F8000009488047F5
:1002100009480047FEE7FEE7FEE7FEE7FEE7FEE7E8
:10022000FEE7FEE7FEE7FEE704480549054A064B00
:10023000704700003D0500088901000860000020AB
:1002400060060020600200206002002070477047B6
:100250007047754600F028F8AE46050069465346DB
:1002600020F00700854618B020B5FFF7DDFFBDE898
:1002700020404FF000064FF000074FF000084FF00D
:10028000000B21F00701AC46ACE8C009ACE8C0099E
:10029000ACE8C009ACE8C0098D4670470446AFF32E
:1002A00000802046FFF7ABFF0048704700000020A9
:1002B00001491820ABBEFEE726000200704700BFD0
:1002C000FEE77047F0B50A4600210023002400BF76
:1002D0003DE0012505FA01F3156805EA03049C4297
:1002E00034D11579012D02D01579022D16D18568EA
:1002F0004F000326BE40B543856055794E00B5409A
:10030000866835438560868801258D40AE438680AA
:10031000868895798D40ADB22E43868005684F0062
:100320000326BE40B543056015794E00B54006680A
:1003300035430560C5684F000326BE40B543C56020
:10034000D5794E00B540C6683543C560491C1029B3
:10035000BFD3F0BD01857047816170471CB54FF474
:100360000040009001208DF804008DF80500002069
:100370008DF806008DF8070069464FF09040FFF7B2
:10038000A1FF8020009069460D48FFF79BFF4020A9
:10039000009069460A48FFF795FF4FF400414FF07F
:1003A0009040FFF7D7FF80210548FFF7D3FF40219A
:1003B0000348FFF7CFFF002000F02EF81CBD00001F
:1003C0000014004800BFFEE700BFFEE7704770471B
:1003D00029B1064A52690243044B5A6104E0034AB8
:1003E00052698243014B5A6170470000001002407D
:1003F00010B501214804FFF7EBFF01218804FFF746
:10040000E7FF01214805FFF7E3FF01218805FFF71A
:10041000DFFF10BD7047000070B5054600241BE0EB
:1004200005FA04F000F4004030B14FF400414FF001
:100430009040FFF791FF05E04FF400414FF09040EE
:10044000FFF788FF80210A48FFF786FF80210848D0
:10045000FFF780FF601CC4B2102CE1DB4021044890
:10046000FFF77AFF40210248FFF774FF70BD0000DC
:10047000001400480CB50020019000902C48006842
:1004800040F480302A49086000BF2948006800F421
:10049000003000900198401C0190009818B9019814
:1004A000B0F5A06FF1D12248006800F4003010B11F
:1004B0000120009001E0002000900098012836D132
:1004C00012201C4908601A484068194948600846CB
:1004D000406848600846406840F4806048600846CC
:1004E000406820F47C1048600846406840F4E810FA
:1004F00048600846006840F08070086000BF0C4803
:10050000006800F000700028F9D00948406820F029
:100510000300074948600846406840F00200486010
:1005200000BF0348406800F00C000828F9D10CBD5A
:1005300000100240002002407047000010B51B4828
:10054000006840F47000194908601948006840F0DC
:100550000100174908600846406800F47F004860C1
:1005600008460068134908401149086008460068B9
:1005700020F4802008600846406820F4FE004860AF
:100580000846C06A20F00F00C8620846006B0A499E
:1005900008400749086300208860FFF76BFF4FF0B1
:1005A000006002498039086010BD000088ED00E05D
:1005B00000100240FFFFF6FE8C0FFF0F00BFFEE7AA
:1005C000FFF716FFFFF7CAFE00BFFEE74FF04070CF
:1005D000E1EE100A70470000E80500080000002066
:0805E00060060000C4010008E0
:040000050800018965
:00000001FF
